:100000000C944B020C940C160C94E5150C94730292
:100010000C9473020C9473020C9473020C9473028C
:100020000C9473020C9473020C9473020C9473027C
:100030000C9473020C9473020C9473020C9473026C
:100040000C949B150C9473020C9459160C94331653
:100050000C9473020C9473020C9473020C9473024C
:100060000C948B160C947302000000000000006FCB
:1000700000000007000700147F147F148C92FF9289
:1000800062231308646236495620500000070000BE
:10009000001C2241000041221C0014083E081408E4
:1000A000083E0808005030000008080808080060F2
:1000B00060000020100804023E5149453E00427F86
:1000C000400042615149462141454B311814127F8D
:1000D0001027454545393C4A494930017109050316
:1000E0003649494936064949291E0036360000007E
:1000F0005636000008142241001414141414004150
:1001000022140802015109063E415D494E7E09094B
:10011000097E7F494949363E414141227F41414163
:100120003E7F494949417F090909013E4149497AD0
:100130007F0808087F00417F41002040413F017F48
:10014000081422417F404040407F020C027F7F0420
:1001500008107F3E4141413E7F090909063E415159
:10016000215E7F09192946464949493101017F012C
:10017000013F4040403F0F3040300F3F4030403F54
:100180006314081463070870080761514945430068
:10019000007F4100020408102000417F000004029B
:1001A0000102044040404040000003040020545439
:1001B00054787F48444438384444442038444448C0
:1001C0007F3854545418087E0901020C5252523E92
:1001D0007F0804047800447D40002040443D000036
:1001E0007F10284400417F40007C041804787C087C
:1001F00004047838444444387C1414140808141453
:10020000187C7C080404084854545420043F44409B
:10021000203C4040207C1C2040201C3C4030403C86
:1002200044281028440C5050503C4464544C440022
:100230000836414100007F000041413608000402B9
:100240000408047E1111117E7F494949337F4949D1
:1002500049367F01010103E0514F41FF7F49494980
:100260004177087F087741494949367F1008047F64
:100270007C2112097C7F0814224120413F017F7FAD
:10028000020C027F7F0808087F3E4141413E7F010A
:1002900001017F7F090909063E4141412201017F99
:1002A000010147281008071C227F221C6314081430
:1002B000637F404040FF070808087F7F407F407F02
:1002C0007F407F40FF017F4848307F4830007F00FB
:1002D0007F484830224149493E7F083E413E4629F9
:1002E00019097F20545454783C4A4A49317C54546B
:1002F00028007C04040C00E0544C44FC3854545452
:10030000186C107C106C44545428007C2010087C1D
:1003100078422412787C1028440020443C047C7CE1
:100320000810087C7C1010107C38444444387C044D
:1003300004047C7C14141408384444440004047CF1
:1003400004040C5050503C3048FE483044281028DB
:10035000447C40407CC00C1010107C7C407C407C75
:100360007C407C40FC047C5050207C5050207C7CA5
:100370005050200028445454387C103844380854D5
:1003800034147C38555455181F1C1F1E1F1E1F1F68
:100390001E1F1E525443206572720000000000248C
:1003A0000027002A0000000000250028002B000084
:1003B0000000080002010000030407000000000024
:1003C000000000AED5808D142001A1C8817FDB40E4
:1003D000A6AFD0A3D181D182D0B0D0B2D0BAD0B0A4
:1003E00000000000000080C0C0E0F07070303030CD
:1003F00020000000000000C0E0F0F070303020006D
:1004000000003078FC7F3F0F0F1F3C78F0E0C08089
:10041000808040E0F0F8FCFF7F33131E1C1C0E07A9
:1004200000000000000000000080C0E0F0F9F7EFDD
:100430005F3F7FFEFDFBF1E0C08000000000000098
:100440000000000000000C1E33331F0F07030100E3
:10045000000000000103070F1F3F1F0E04000000F3
:10046000000102040810204080010204081020014D
:1004700002040810200000000023002600290004C8
:10048000040404040404040202020202020303033B
:1004900003030300AA1711241FBECFEFD8E0DEBF6D
:1004A000CDBF27E0ACECB1E001C01D92A23CB20789
:1004B000E1F711E0A0E0B1E0E4EEFBE402C005905A
:1004C0000D92AC3CB107D9F712E0CBE4D2E004C006
:1004D0002197FE010E94F120CA34D107C9F70E947A
:1004E00044190C94F0250C9400002091490328171E
:1004F000190670F1209148032617170648F110924B
:100500005207109251071092540710925307FB01A3
:1005100023E0F595E7952A95E1F733E0880F991FD9
:100520003A95E1F7E80FF91F6770772781E090E0CF
:10053000A0E0B0E004C0880F991FAA1FBB1F6A95F6
:10054000D2F7EE5BFC4F442321F02285822B828779
:100550000895809592858923FACF2F923F924F92EA
:100560005F926F927F928F929F92AF92BF92CF9243
:10057000DF92EF92FF920F931F93CF93DF9300D000
:1005800000D0CDB7DEB79C838B837B018A016901E4
:10059000109252071092510710925407109253076D
:1005A0008417950709F051C02617370724F08D2DC1
:1005B0006B01E22EF82E809149032B813C8182173A
:1005C0001306BCF40F900F900F900F90DF91CF9116
:1005D0001F910F91FF90EF90DF90CF90BF90AF9061
:1005E0009F908F907F906F905F904F903F902F9053
:1005F0000895CE14DF04E1F441E0B6018B819C81C3
:100600000F900F900F900F90DF91CF911F910F914E
:10061000FF90EF90DF90CF90BF90AF909F908F9022
:100620007F906F905F904F903F902F900C94750249
:10063000EC14FD043CF241E0B6018B819C810E94E8
:1006400075022FEFC21AD20AF3CF62177307E9F5CA
:100650008B819C81481759072CF0812F0B811C81BD
:100660004B838C83809148038E151F040CF4AACF12
:100670002B813C810217130721F441E0B701C80127
:10068000BFCF8091490390E0801791070CF48C0153
:1006900017FF02C010E000E02B813C812F5F3F4F2D
:1006A0003A8329838217930714F49A838983898173
:1006B0009A81081719070CF085CF41E0B701C801EE
:1006C0000E9475020F5F1F4FF2CF2A012B813C81E0
:1006D000421A530A57FE03C05194419451083601FF
:1006E0006E187F0877FE03C07194619471088B8146
:1006F0009C8122242394312C801791071CF0222402
:100700002A94322CEC14FD0494F521E030E03A8375
:100710002983420186189708AA24BB24A618B70883
:1007200041E0B7018B819C810E9475022B813C8145
:100730000217130721F4CE14DF0409F443CFC401D8
:10074000880F991FA816B9065CF4861897082B81A4
:100750003C81220D331D3C832B838415950504F7C2
:10076000840C951C89819A81E80EF91ED9CF8FEFF0
:100770009FEF9A838983CDCF08950895833081F0C8
:1007800028F4813099F08230A9F008958730A9F0DB
:100790008830C9F08430B1F4809180008F7D03C02F
:1007A000809180008F7780938000089584B58F7743
:1007B00084BD089584B58F7DFBCF8091B0008F7785
:1007C0008093B00008958091B0008F7DF9CFCF93D2
:1007D000DF93282F30E0F901E155FC4F8491F901B6
:1007E000EF59FB4FD491F901E158FB4FC491CC2351
:1007F000A1F081110E94BE03EC2FF0E0EE0FFF1F6D
:10080000EB58FB4FA591B491EC91ED2381E090E082
:1008100009F480E0DF91CF91089580E090E0FACF75
:100820001F93CF93DF93282F30E0F901E155FC4F60
:100830008491F901EF59FB4FD491F901E158FB4F35
:10084000C491CC23A9F0162F81110E94BE03EC2F76
:10085000F0E0EE0FFF1FEB55FC4FA591B4918FB761
:10086000F894EC91111108C0D095DE23DC938FBF72
:10087000DF91CF911F910895DE2BF8CFCF93DF93B7
:1008800090E0FC01EF59FB4F249181589B4FFC01F4
:1008900084918823D1F090E0880F991FFC01E556E0
:1008A000FC4FA591B491FC01EB55FC4FC591D4913F
:1008B000623071F49FB7F8943C91822F8095832326
:1008C0008C93E8812E2B28839FBFDF91CF910895D1
:1008D0008FB7F894EC912E2B2C938FBFF6CF3FB7A8
:1008E000F89480911A0290911B02A0911C02B09181
:1008F0001D0226B5A89B05C02F3F19F00196A11D2A
:10090000B11D3FBFBA2FA92F982F8827BC01CD0159
:10091000620F711D811D911D42E0660F771F881FB8
:10092000991F4A95D1F708958F929F92AF92BF92E7
:10093000CF92DF92EF92FF924B015C010E946F0415
:100940006B017C010E946F046C197D098E099F095F
:10095000683E734081059105A8F321E0821A910851
:10096000A108B10888EEC80E83E0D81EE11CF11C76
:1009700081149104A104B10429F7FF90EF90DF9056
:10098000CF90BF90AF909F908F9008952FB7F8941D
:1009900060911602709117028091180290911902CD
:1009A0002FBF08950895EF92FF920F931F93CF9357
:1009B000DF938C017B01D0E0C0E0F701EC0FFD1F5D
:1009C0006491662361F0D801ED91FC910190F08172
:1009D000E02DC8010995892B11F02196EECFCE01AB
:1009E000DF91CF911F910F91FF90EF900895AF92FB
:1009F000BF92CF92DF92EF92FF920F931F93CF930C
:100A0000DF936C017B018B01040F151FEB015E016D
:100A1000AE18BF08C017D10759F06991D601ED9102
:100A2000FC910190F081E02DC6010995892B79F7A1
:100A3000C501DF91CF911F910F91FF90EF90DF9053
:100A4000CF90BF90AF900895FC01538D448D252F1A
:100A500030E0842F90E0821B930B541710F0CF9658
:100A6000089501970895FC01918D828D981761F08A
:100A7000A28DAE0FBF2FB11D5D968C91928D9F5FA1
:100A80009F73928F90E008958FEF9FEF0895FC0180
:100A9000918D828D981731F0828DE80FF11D858D33
:100AA00090E008958FEF9FEF0895FC01918D228DC6
:100AB000892F90E0805C9F4F821B91098F7399274B
:100AC000089589E992E00E94550521E0892B09F4F7
:100AD00020E0822F089580E090E0892B29F00E9489
:100AE000610581110C9400000895FC01A48DA80FEC
:100AF000B92FB11DA35ABF4F2C91848D90E0019660
:100B00008F739927848FA689B7892C93A089B1897F
:100B10008C91837080648C93938D848D981306C020
:100B20000288F389E02D80818F7D80830895EF9284
:100B3000FF920F931F93CF93DF93EC0181E0888F97
:100B40009B8D8C8D98131AC0E889F989808185FF67
:100B500015C09FB7F894EE89FF896083E889F98909
:100B600080818370806480839FBF81E090E0DF910B
:100B7000CF911F910F91FF90EF900895F62E0B8D5E
:100B800010E00F5F1F4F0F731127E02E8C8D8E1119
:100B90000CC00FB607FCFACFE889F989808185FF80
:100BA000F5CFCE010E947505F1CFEB8DEC0FFD2F37
:100BB000F11DE35AFF4FF0829FB7F8940B8FEA893B
:100BC000FB8980818062CFCFCF93DF93EC01888D4A
:100BD0008823B9F0AA89BB89E889F9898C9185FDB8
:100BE00003C0808186FD0DC00FB607FCF7CF8C9146
:100BF00085FFF2CF808185FFEDCFCE010E94750584
:100C0000E9CFDF91CF9108958F929F92AF92BF92DB
:100C1000CF92DF92EF92FF92CF93DF93EC016A01C4
:100C20007B0180E8C81A83E4D80A8DE6E80A88E3E5
:100C3000F80A8CE3882E912CA12CB12CC701B601A7
:100C4000A50194010E94A9206D83CA01B901A501E3
:100C500094010E94A9206C83C701B60120E13EE007
:100C600040E050E00E94A920CA01B90128E130E02B
:100C700040E050E00E94A9206B83C701B60120E844
:100C800031E541E050E00E94A920188263E97EEF3F
:100C90008881982F937041E050E011F050E040E0DF
:100CA000FA01E359FE4F2E173F0740F0FB01E41B0A
:100CB000F50B2E0F3F1F8F5F8883EACF81E089837A
:100CC00089818C30A0F4482F4150550BFA01E85728
:100CD000FC4FE491911103C0823009F4EF5FF0E022
:100CE0002E173F0720F02E1B3F0B8F5FE8CF2F5FA3
:100CF0002A83DF91CF91FF90EF90DF90CF90BF904C
:100D0000AF909F908F900895DC0150E0E8E8F3E009
:100D100081E0861730F49491490F511D8F5F319611
:100D2000F8CF633038F0CD0183709927892B11F407
:100D30004F5F5F4F9D012D5F3F4F3695279536954D
:100D400027956DE671E0A69FC001A79F900DB69F05
:100D5000900D11240197820F931F840F951F089502
:100D6000EF92FF920F931F93CF93DF93EC01888153
:100D70004A81698190E00E9484069C01A8E1B0E06C
:100D80000E9466202B817B018C01E20EF11C011D6B
:100D9000111DA8019701ACE3B0E00E9424202C8132
:100DA0007B018C01E20EF11C011D111DA8019701B0
:100DB0000E942420AB01BC019D81892F90E0B0E00E
:100DC000A0E080589C4BA249B74C8A019B01080FB8
:100DD000191F2A1F3B1FC901B801DF91CF911F9135
:100DE0000F91FF90EF9008950F931F93CF93DF9390
:100DF00000D000D000D0CDB7DEB7FC012081243672
:100E000010F58C010E94B006AB01BC01CE01019629
:100E10000E940406F80190818981981314C0918181
:100E20008A81981310C092818B8198130CC0938192
:100E30008C81981308C094818D81981304C081E03F
:100E400025819E81291380E026960FB6F894DEBF97
:100E50000FBECDBFDF91CF911F910F9108952091CB
:100E6000ED01260F3327331F21323105ECF4209199
:100E70006F02FC0190E080E0243069F082E0089588
:100E8000A091ED012191AC0143535E4FA40FB52F0A
:100E9000B11D2C930196861798F38091ED01680F90
:100EA0006093ED0180E0089581E0089510926F0253
:100EB00081E080936E021092490261E082E10E941B
:100EC000100461E083E10E941004E9EBF0E080810E
:100ED0008E7F808380818D7F808388E48093B800BB
:100EE00085E48093BC000895109228021092270296
:100EF00010927602109298020E9456078CEB93E0B3
:100F000090932102809320028DEB93E090931F0237
:100F100080931E020895CF93DF9391E09093CC01CC
:100F20008823B9F0C091B800D091BA008091BC007C
:100F30008A7B8093BC0060E082E10E94100460E044
:100F400083E10E9410040E945607D093BA00C09318
:100F5000B800DF91CF9108958F929F92AF92BF9288
:100F6000CF92DF92EF92FF920F931F93CF93DF9375
:100F7000D0919802D13208F0D7C0182FC0919702B3
:100F80000E946F046B017C0180916F0281116BC024
:100F900082E080936F0210936E028FEF80936D0258
:100FA00010926C02D0936B02A7E7B2E0EBE4F2E0A0
:100FB00080E0D81391C010924A0280914A02CC0F6F
:100FC000C82BC0934A0280914902813009F088C041
:100FD000109249020E946F046B017C0180914A02C9
:100FE0008093BB008091710290917202A091730274
:100FF000B0917402892B8A2B8B2BA1F00E946F0475
:10100000009171021091720220917302309174026A
:101010006C197D098E099F090617170728073907DC
:1010200008F442C08091BC0083FDD8CF85EC80934A
:10103000BC000E946F046B017C0180916F028230C2
:1010400009F450C080916D028F3F09F46FC0809108
:101050006D02803209F46CC080916D02803309F416
:1010600069C084E026C08091710290917202A091C3
:101070007302B0917402892B8A2B8B2B09F484CFD5
:101080000E946F048090710290907202A09073028F
:10109000B09074026C197D098E099F098616970617
:1010A000A806B90608F070CF809170020E948B07E5
:1010B00085E0109276021092980210927502DF91EC
:1010C000CF911F910F91FF90EF90DF90CF90BF9045
:1010D000AF909F908F9008959D9191938F5F69CF6E
:1010E00085EEA5CF8091710290917202A09173025A
:1010F000B0917402892B8A2B8B2B09F49ECF0E940E
:101100006F0400917102109172022091730230916C
:1011100074026C197D098E099F09061717072807A5
:10112000390708F08ACFC0CF81E0C3CF80E0C1CFBC
:1011300082E0BFCF83E0BDCFCF93DF93EC018B8103
:101140008823A1F0888191E09093750280939702A3
:10115000109276021092980281E00E94AC0791E012
:10116000811190E0892FDF91CF9108950E9474073B
:1011700081E08B83CE010E949C08982F8111E2CFE1
:10118000F1CF0895E091280280912702E81730F40A
:10119000F0E0E75DFD4F808190E008958FEF9FEFD5
:1011A000089590912802809127022FEF3FEF981722
:1011B00048F4E92FF0E0E75DFD4F208130E09F5FCC
:1011C00090932802C90108958091270290912802E6
:1011D000891B990B0895CF92DF92EF92FF920F93A4
:1011E0001F93CF93DF937C01CB018A01209175027D
:1011F000222389F0EB016B01C40ED51ECC15DD0551
:1012000069F06991D701ED91FC910190F081E02D99
:10121000C7010995F3CF642F0E942F07C801DF9102
:10122000CF911F910F91FF90EF90DF90CF90089595
:10123000CF93DF931F92CDB7DEB7698320917502FC
:101240002223F9F020919802203258F021E030E07A
:10125000FC013383228390E080E00F90DF91CF91F7
:10126000089580917602E82FF0E0E958FD4F9981CA
:1012700090838F5F809376028093980281E090E064
:10128000ECCF61E0CE0101960E942F07F7CFDC0181
:10129000ED91FD918081ED91FD919081ED91FD9118
:1012A0006C9163708E2309F064609F2309F068607D
:1012B000E4E6F9E0E60FF11D659565956D936D9196
:1012C0007D918D919D91099423C01AC012C016C0C2
:1012D00010C01EC009C014C013C006C019C009C088
:1012E0000DC007C00DC014C06250704080409040D7
:1012F0000BC0615070408040904006C06E5F01C0DE
:101300006F5F7F4F8F4F9F4F9E938E937E936E9311
:10131000089580916407909165070C944709809126
:101320006607909167070C944709682F86E393E05E
:101330000C9418098091460391E090937502809374
:101340009702109276021092980280E00C94950910
:10135000CF93DF93EC0181E00E94AC07188283E019
:1013600090E00197F1F7DF91CF9108950E949509E0
:10137000809157078F5F80935707803190F087E502
:1013800097E00E94A8098091460391E0909375022E
:1013900080939702109276021092980280E40C9447
:1013A000950908950F931F93CF93DF938C01EB0161
:1013B0000E949A0981E20E94950980E00E949509A5
:1013C0008091490390E0081719070CF4C8010E94A6
:1013D000950982E20E94950980E00E94950980911A
:1013E000470390E0C817D9070CF4CE010E94950975
:1013F00087E597E0DF91CF911F910F910C94A80999
:10140000CF93DF936091470370E08091490390E0B0
:101410000E94D2098091460391E0909375028093D7
:101420009702109276021092980280E40E94950929
:10143000CCE4D3E089910E94B60987E0CC34D80788
:10144000C9F787E597E0DF91CF910C94A8090F9336
:101450001F930130110559F10230110509F44AC0FA
:10146000012B11F5FC01E15FFB4F0190F081E02DB4
:101470002E0F3F2F311DB3E0220F331FBA95E1F736
:10148000FC01EF5EFB4F0190F081E02D13E0F5953C
:10149000E7951A95E1F7E20FF31FE40FF11DE80F4E
:1014A000F91F8285682B62871F910F910895FC01B7
:1014B000E15FFB4F0190F081E02D2E0F3F2F311D9A
:1014C000E3E0220F331FEA95E1F7FC01EF5EFB4FEB
:1014D0000190F081E02DA3E0F595E795AA95E1F75D
:1014E000E20FF31FE40FF11DE80FF91F60958285ED
:1014F0006823D9CFFC01E15FFB4F0190F081E02D23
:101500002E0F3F2F311D53E0220F331F5A95E1F765
:10151000FC01EF5EFB4F0190F081E02D73E0F5954B
:10152000E7957A95E1F7820F931FE80FF91FE40F13
:10153000F11DB9CF2F923F924F925F926F927F929F
:101540008F929F92AF92BF92CF92DF92EF92FF92D3
:101550000F931F93CF93DF93CDB7DEB767970FB687
:10156000F894DEBF0FBECDBF9F8B8E8BF62EFC0195
:10157000E25FFB4F208130E03396845F9B4F6C012C
:101580004DE064133DC08E899F89815F9B4FDC01D4
:101590001D921C9281E0F12C4E895F89455F5B4F63
:1015A000DA016C916623D1F14E895F89435F5B4F0D
:1015B000DA019C910E891F89015F1B4FD8014D9163
:1015C0005C91B6E09B9F400D511D1124AE89BF89EF
:1015D00017969C919417150609F004F58081918166
:1015E000D8011D921C92820F931F918380834E8994
:1015F0005F894D5E5B4F80818770DA018C9310C0EC
:10160000BAE080E06B13C8CF80819181820F931F75
:101610009183808381E0D6018C93BDCF8111E7CF88
:1016200080819181280F391FEE89FF89868190E0A2
:101630000196821793070CF4F12CD6018C91882324
:1016400059F1662349F1B0E2FB1226C0EE89FF8909
:10165000E15FFB4F80819181892B09F048C0F60141
:10166000108281E090E067960FB6F894DEBF0FBE5F
:10167000CDBFDF91CF911F910F91FF90EF90DF9041
:10168000CF90BF90AF909F908F907F906F905F9022
:101690004F903F902F900895F7FE50C0EE89FF893C
:1016A000EC5EFB4F2FEB2F15C0F08081813D39F4AC
:1016B00031E9F31241C0F082E0ECFE2E18C0803D0B
:1016C00039F441E8F41238C0F082F5E9FF2E0FC07A
:1016D000823E29F450E8F5122FC0F082C2CF803844
:1016E00059F564E9F61228C0F082ADE2FA2E8E892F
:1016F0009F89815F9B4F9A838983DC012D913C9167
:10170000EE89FF89E35FFB4FFB87EA878081A901B0
:1017100066E0869F400D511D1124CA0157FD07C088
:10172000AE89BF8917964C91421713065CF4E98184
:10173000FA819183808395CFF082D9CFFF2009F47D
:1017400090CFD5CFF0EEFF0DF9878F2F90E0AC0151
:101750004150510925E0249FB001259F700D1124AF
:101760007F876E8760557109798B688B8F96289F6C
:10177000D001299FB00D1124BD87AC87AB5EB109A4
:10178000BB8BAA8BD12CC12CEA85FB85FC83EB8318
:101790002E893F892D5E3B4F3E832D834E895F8985
:1017A0004A5E5B4F58874F8355E060E0C516B9F03D
:1017B0006985EA89FB89603668F080E88F0DEC85E1
:1017C000FD85803138F07985E889F989703A10F023
:1017D000EE85FF85E859FF4FEC0DFD1D6491EE8904
:1017E000FF89E65FFB4F808181116095AB81BC81F1
:1017F0009C91913009F053C0EE89FF89E15FFB4F66
:101800008081918197FD35C0EE89FF892781281756
:1018100019067CF1AD81BE818C91EF81F885008144
:1018200010E020E040E0882301F1A62EB12CB501A4
:1018300001C0660F8A95EAF720E040E08E899F8913
:101840000E94270AAF81B8850C9110E0ED81FE81DE
:10185000808128E030E0281B3109B50102C0759570
:1018600067952A95E2F720E041E08E899F890E94E2
:10187000270AEA85FB858081A981BA812D913C9157
:101880001197820F932F911D8D939C93BFEFCB1ACD
:10189000DB0AE6E0CE16D10409F086CFE2CE30E0D6
:1018A00020E080E0812C912C5401E62FF0E0AF0184
:1018B000022E02C0559547950A94E2F741705527CC
:1018C000692F680F8617F1F0412C512C3201439497
:1018D000082E04C0440C551C661C771C0A94D2F7D1
:1018E0004115510531F084289528A628B7288F5F27
:1018F000E9CF409450946094709484209520A62061
:10190000B720F5CF2F5F3F4F2830310581F6312CBE
:101910004E895F89415F5B4F5D8B4C8BAC89BD8984
:101920008D919C91EB81FC812081321608F0A1CF32
:10193000830D911D97FD47C0AE89BF8917962C91E5
:10194000281719060CF43FC0212CE12CED81FE81F3
:101950002081AB81BC818C912816B0F5B8E02B9E1C
:10196000C00111242401350104C076946794579472
:1019700047948A95D2F7EF81F885008110E0211114
:1019800009C0232D422D642D8E899F890E94270A2C
:101990002394DCCF6E2D70E088E090E0821B9109EB
:1019A00002C0759567958A95E2F7842D01C0880F6E
:1019B0002A95EAF7682B232D422D8E899F890E9454
:1019C000270AE42CE5CFE12CAD81BE818C918823E0
:1019D000B9F0EF81F885008110E06E2D70E028E00D
:1019E00030E0281B310902C0759567952A95E2F70A
:1019F000232DAB81BC814C918E899F890E94270A3F
:101A000033948CCF089590E080E008952F923F9218
:101A10004F925F926F927F928F929F92AF92BF92FE
:101A2000CF92DF92EF92FF920F931F93CF93DF93AA
:101A30005C011B016A01F12CE12CD50114968D91FA
:101A40009C9186010E191F098017910708F48C01DB
:101A5000F501D0810E946F042B013C0180916F023F
:101A6000811172C0C02F013208F0C0E2F1E0F093A2
:101A70006F0221E0C601801B910BE816F90608F4FD
:101A800020E020936E028FEF80936D0210926C0223
:101A90008C0F80936B02A1E0A0934A0280914A02CE
:101AA000DD0FD82BD0934A0280914902813009F092
:101AB00090C0109249020E946F042B013C0180915A
:101AC0004A028093BB008091710290917202A091B2
:101AD0007302B0917402892B8A2B8B2BA1F00E9488
:101AE0006F04209171023091720240917302509103
:101AF000740264197509860997092617370748077C
:101B0000590708F442C08091BC0083FDD8CFB5ECE2
:101B1000B093BC000E946F042B013C0180916F02C6
:101B2000813009F45AC080916C028C1710F4C09176
:101B30006C02ABE4B2E0E9E2F2E080E08C1751F134
:101B40009D9191938F5FFACF809171029091720273
:101B5000A0917302B0917402892B8A2B8B2B09F40C
:101B60007DCF0E946F0420917102309172024091EA
:101B70007302509174026419750986099709261732
:101B800037074807590708F069CF809170020E9413
:101B90008B07C0E010922802C0932702C0171106DD
:101BA00009F057C041018E0C9F1CE401CE01881939
:101BB00099098017910798F5D50111968D919C91FF
:101BC000DC01ED91FC910284F385E02D0995899368
:101BD000EDCFE5EEE093BC009DCF80917102909136
:101BE0007202A0917302B0917402892B8A2B8B2B05
:101BF00009F494CF0E946F04209171023091720217
:101C0000409173025091740264197509860997090D
:101C1000261737074807590708F080CFB6CFE00EE0
:101C2000F11EEC14FD0408F408CF81E0DF91CF91A0
:101C30001F910F91FF90EF90DF90CF90BF90AF90EA
:101C40009F908F907F906F905F904F903F902F90DC
:101C5000089580E0EBCF1F93CF93DF93DC011496C0
:101C6000ED91FC91E417F50710F490E01FC0122FDE
:101C7000EA01FC0181819281208131E0309375027B
:101C8000209397021092760210929802DC01ED9157
:101C9000FC910280F381E02D0995C817D90729F737
:101CA000812F0E94AC0791E08111DFCF892FDF9156
:101CB000CF911F910895EF92FF920F931F93CF93AF
:101CC000DF9300D000D000D01F92CDB7DEB78C01DB
:101CD0001982DB01ED90FC9020E041E050E0BE0174
:101CE0006F5F7F4FC7010E942B0E882341F047E0B2
:101CF00050E0BE016F5F7F4FC7010E94060DE98172
:101D0000EF77FA81FB805D814E814F778F81282F9D
:101D100030E094E0359527959A95E1F7922F990F49
:101D2000990F291B220F280FD8012C93842F90E0A4
:101D300024E0959587952A95E1F7982F990F990FAB
:101D4000891B880F840F11968C931197652F70E073
:101D500034E0759567953A95E1F7862F880F880FDF
:101D6000681B660F650F12966C9312974F2D50E00B
:101D700064E0559547956A95E1F7842F880F880FA1
:101D8000481B440F4F0D13964C9313972F2F30E0A1
:101D900074E0359527957A95E1F7822F880F880FA3
:101DA000281B220F2F0F14962C9314978E2F90E040
:101DB000F4E095958795FA95E1F7982F990F990F8B
:101DC000891B880F8E0F15968C93C80127960FB626
:101DD000F894DEBF0FBECDBFDF91CF911F910F9161
:101DE000FF90EF900895CF92DF92EF92FF920F93C2
:101DF0001F93CF93DF9300D0CDB7DEB721E12983C6
:101E00001A82FC010081118120E041E050E0BE0116
:101E10006F5F7F4FC8010E942B0E882341F042E084
:101E200050E0BE016F5F7F4FC8010E94060D6A81BE
:101E300070E086E0759567958A95E1F7072E000CAE
:101E4000880B990B0E94071F20E030E040E85EE31A
:101E50000E94661F6B017C01698170E090E080E068
:101E60000E94051F9B01AC01C701B6010E94F8202A
:101E70000F900F90DF91CF911F910F91FF90EF90F6
:101E8000DF90CF900895CF92DF92EF92FF920F9361
:101E90001F93CF93DF93CDB7DEB72B970FB6F89490
:101EA000DEBF0FBECDBF7C018B01CE0101966C0160
:101EB00088E0F60111928A95E9F7FB0135812AE065
:101EC000832F622F0E947520982F880F890F880F0B
:101ED000830F8A833481832F0E947520982F880F67
:101EE000890F880F830F8B833381832F0E94752086
:101EF000982F880F890F880F830F8C8380814281F0
:101F0000618190E00E948406069667E070E00E947E
:101F10008120811101C087E08D83F80132812AE0A0
:101F2000832F622F0E947520982F880F890F880FAA
:101F3000830F8E833181832F0E947520982F880F05
:101F4000890F880F830F8F833081832F0E94752024
:101F5000982F880F890F880F830F888721E048E02A
:101F600050E0B601F701808191810E942B0E1FE0A5
:101F70001B8721E041E050E0BE01655F7F4FF70124
:101F8000808191810E942B0E41E050E0BE01675F8D
:101F90007F4FF701808191810E94060D8985198705
:101FA0008F778A8721E042E050E0BE01675F7F4F74
:101FB000F701808191810E942B0E2B960FB6F89429
:101FC000DEBF0FBECDBFDF91CF911F910F91FF906C
:101FD000EF90DF90CF9008950F931F93CF93DF93EF
:101FE00000D000D000D0CDB7DEB7FC0105E817E087
:101FF000D80152968C91529750969C9150971E966C
:102000002C911E9732814181508159834A833B83B1
:102010002C839D838E83BE016F5F7F4F8D919C913A
:102020000E94430FF8011086178226960FB6F89487
:10203000DEBF0FBECDBFDF91CF911F910F910895ED
:1020400041E06AE270E081E690E00E94750241E0C2
:1020500066E270E081E690E00E94750241E068E28D
:1020600070E083E690E00E94750241E068E270E073
:102070008FE590E00E94750241E06AE270E082E63E
:1020800090E00E94750241E06AE270E080E690E034
:102090000E94750241E066E270E082E690E00E94F4
:1020A000750241E066E270E080E690E00E94750211
:1020B00041E069E270E083E690E00E94750241E051
:1020C00069E270E08FE590E00E94750241E067E20E
:1020D00070E083E690E00E94750241E067E270E004
:1020E0008FE590E00E94750241E069E270E083E6CE
:1020F00090E00E94750241E069E270E08FE590E0B7
:102100000E94750241E067E270E083E690E00E9481
:10211000750241E067E270E08FE590E00E94750291
:1021200041E06AE270E082E690E00E94750241E0E0
:102130006AE270E080E690E00E94750241E066E2AB
:1021400070E082E690E00E94750241E066E270E095
:1021500080E690E00C947502CF93DF930E947407A1
:102160000E949A09C3ECD3E0FE0184910E94B60953
:102170002196F3E0C23DDF07B9F787E597E00E94BB
:10218000A8090E949A098AED0E94B60982E10E947C
:10219000B60988EA0E94B6098FE30E94B60987E56E
:1021A00097E00E94A80910925207109251071092CE
:1021B000540710925307109255076091470370E03F
:1021C0008091490390E00E94D2090E949A0981E817
:1021D0000E94950986EE0E94950987E597E00E9486
:1021E000A80940914A0350914B0370E060E08CE4F1
:1021F00093E00E94342380915307877080935507A2
:102200000E94C604609387077093880780938907AC
:1022100090938A07DF91CF91089540914A0350919E
:102220004B0370E060E08CE493E00E9434238091E3
:1022300053078770809355070895FB010190002094
:10224000E9F73197AF01461B570BDC01ED91FC918B
:102250000280F381E02D09948F929F92AF92BF92FA
:102260000F931F93CF93DF93CDB7DEB7A1970FB630
:10227000F894DEBF0FBECDBF19A2423008F44AE089
:102280008E010F5D1F4F842E912CB12CA12CA50126
:1022900094010E94A920E62FB901CA01EA3004F591
:1022A000E05DD801EE938D01232B242B252B79F7AC
:1022B00090E080E0109729F0BD0182E493E00E9455
:1022C0001D11A1960FB6F894DEBF0FBECDBFDF91F2
:1022D000CF911F910F91BF90AF909F908F900895D5
:1022E000E95CDFCF8823A1F06AE371E089E992E03D
:1022F0000E941D1166E571E089E992E00E941D11BE
:1023000060E08CE00E94100461E08BE00C9410040B
:1023100069E571E089E992E00E941D1166E571E0CE
:1023200089E992E00E941D1160E08BE00E94100498
:1023300061E08CE0EBCF8F929F92AF92BF92CF92F1
:10234000DF92EF92FF92CF93DF93EC010E94C604DD
:102350006B017C018D8181112AC0CE010E94B006E3
:102360004B015C018FEA97E00E94B006861A970A3B
:10237000A80AB90A8CE388169104A104B104BCF040
:10238000C092AB07D092AC07E092AD07F092AE07D7
:1023900086E0FE01AFEAB7E001900D928A95E1F781
:1023A0008C8181700E94721181E08093B5078091C9
:1023B000B5078823E9F08091AB079091AC07A09115
:1023C000AD07B091AE07C81AD90AEA0AFB0A80EA3B
:1023D000C8168FE0D806E104F10450F060E08BE00D
:1023E0000E94100460E08CE00E9410041092B50777
:1023F000DF91CF91FF90EF90DF90CF90BF90AF90A3
:102400009F908F900895BC0182E493E00C941D117D
:102410005F926F927F928F929F92AF92BF92CF9274
:10242000DF92EF92FF920F931F93CF93DF93CDB77D
:10243000DEB764970FB6F894DEBF0FBECDBF0E9423
:10244000C604AB01BC018091230290912402A091AB
:102450002502B09126028A019B01081B190B2A0B49
:102460003B0BD901C8018A3F9105A105B10580F058
:102470008091220290E00196837099278093220236
:102480004093230250932402609325027093260206
:1024900062E771E0CE0101960E943B230E940D117C
:1024A00082E080934F0780E18093500788E090E0BE
:1024B000909352078093510710925407109253073C
:1024C00010925507CE0101960E940312F12C8091C3
:1024D0002202F81630F48CE891E00E940312F39483
:1024E000F6CF109252071092510710925407109293
:1024F00053071092550798E2E92EF12C28E0622E3E
:10250000712C809149038E151F0444F197012754C3
:102510003C4F4901512C84E0C82ED12CF401A590E8
:10252000B490209155078091470390E0211135C068
:102530008C159D054CF010E000E02E2D4C2D6A2DE1
:1025400082E493E00E94270A3FEFC31AD30A80E295
:10255000880E911C98E0C916D10401F70FEFE01A1C
:10256000F00A18E4E116F10461F60E94000A64968C
:102570000FB6F894DEBF0FBECDBFDF91CF911F9194
:102580000F91FF90EF90DF90CF90BF90AF909F9012
:102590008F907F906F905F9008958C159D05CCF083
:1025A000652D70E0C301821B910902C07595679586
:1025B0008A95E2F7C501992701C0880F2A95EAF7A5
:1025C000682B10E000E02E2D4C2D82E493E00E9459
:1025D000270A5A2CB9CFEF92FF920F931F93CF93F4
:1025E000DF93CDB7DEB72A970FB6F894DEBF0FBEE4
:1025F000CDBF28E531E097FD02C021E831E09F938F
:102600008F933F932F9383E891E09F938F931F9233
:102610008AE08F93CE0101967C019F938F930E9455
:1026200042230E940D1102E000934F0710E1109326
:10263000500784E190E090935207809351071092E5
:102640005407109253071092550762ED73E082E42D
:1026500093E00E94D30483E080934F0788E1809346
:10266000500785E090E0909352078093510788E2ED
:1026700090E0909354078093530710925507C70139
:102680000E94031200934F07109350078CE590E0CF
:10269000909352078093510780E390E09093540702
:1026A000809353071092550788E891E00E94031227
:1026B0000E94000A0FB6F894DEBF0FBECDBF2A9667
:1026C0000FB6F894DEBF0FBECDBFDF91CF911F9143
:1026D0000F91FF90EF9008954F925F926F927F92CB
:1026E0008F929F92AF92BF92CF92DF92EF92FF9222
:1026F0000F931F93CF936B017C01742EAC019B0150
:102700000E940A226EE871E0811126C0460157013D
:10271000E894B7F82FEF3FEF4FE75FE7C501B4014B
:102720000E940A2281110CC02FEF3FEF4FE75FE7B5
:10273000C501B4010E94001F62E971E0181664F03F
:102740002FEF3FEF4FE75FE4C701B6010E9405227C
:102750001816ACF466E971E082E493E0CF911F9122
:102760000F91FF90EF90DF90CF90BF90AF909F9030
:102770008F907F906F905F904F900C941D112FEF72
:102780003FEF4FE75FECC701B6010E94001F87FDD6
:10279000E1CF20E030E0A901C701B6010E94001F8F
:1027A00010E000E087FF0AC06DE282E493E00E943F
:1027B0009A0A8C01F7FAF094F7F8F094C0E060E020
:1027C00070E080E09FE37C1641F020E030E040E2E2
:1027D00051E40E946421CF5FF6CFA70196010E94C9
:1027E000F8202B013C010E94D6214B015C014AE0FC
:1027F0000E942C117C01E00EF11ECC23C1F1C50119
:10280000B4010E94051F9B01AC01C301B2010E94EB
:10281000F7204B015C016EE282E493E00E949A0A89
:10282000E80EF91EC15018F120E030E040E251E41A
:10283000C501B4010E94661F2B013C010E94D621F4
:102840004B01B12CA12C4AE0C501B4010E942C110E
:10285000E80EF91EC501B4010E94051F9B01AC01E1
:10286000C301B2010E94F7204B015C01DBCFC7011D
:10287000CF911F910F91FF90EF90DF90CF90BF907D
:10288000AF909F908F907F906F905F904F90089542
:102890009F92AF92BF92CF92DF92EF92FF920F93EF
:1028A0001F93CF93DF93CDB7DEB72F970FB6F89472
:1028B000DEBF0FBECDBF80918B0790917E0799231D
:1028C000D1F0882331F080917C0790917D070E94A0
:1028D000EB122F960FB6F894DEBF0FBECDBFDF917F
:1028E000CF911F910F91FF90EF90DF90CF90BF900D
:1028F000AF909F90089590919E07992329F0882387
:1029000041F30E940812E5CF8E010F5F1F4F88230D
:1029100009F4D0C06091850770918607CE010A96B0
:102920000E945B0ECE010A960E94F406882309F4E9
:10293000C1C080918507909186070E94F30E6B01BC
:102940007C018F851F928F938E851F928F938D852B
:102950001F928F938AE991E09F938F931F9289E052
:102960008F931F930F930E9442230E940D1182E0C8
:10297000982E90924F0790E1A92EA092500780E1E7
:1029800090E0909352078093510710925407109251
:10299000530710925507C8010E940312BB24B39439
:1029A000B0924F0788E0809350078CE090E09093BE
:1029B0005207809351078CE190E0909354078093E5
:1029C000530784E08093550789EA91E00E9403123F
:1029D00020E230E04AE050E060E270E088E090E021
:1029E0000E94AD0220E230E048E750E060E270E093
:1029F00080E590E00E94AD022FE330E048E050E037
:102A000060E270E088E090E00E94AD022FE330E0E9
:102A100048E750E060E270E088E790E00E94AD0295
:102A200090924F07A092500784E190E09093520754
:102A30008093510789E290E0909354078093530765
:102A4000B09255070FB6F894DEBF0FBECDBF20E0A1
:102A500030E0A901C701B6010E94052287FD04C02C
:102A600081E891E00E94031242E0C701B6010E9492
:102A70006C130E94201084E690E09093520780939C
:102A8000510789E290E0909354078093530781E0C7
:102A90008093550780EC91E00E9403122FE330E011
:102AA00048E750E06FE370E088E090E00E94AD02FC
:102AB0000E94000A66EB77E0C8010E945B0EC80125
:102AC0000E949B1106CF85ED8093BC00809171021E
:102AD00090917202A0917302B09174020796A11DA9
:102AE000B11D23E0B695A795979587952A95D1F7BF
:102AF0002091BC0024FD03C010926F020895409104
:102B00007102509172026091730270917402452BB0
:102B1000462B472B69F30097A105B10541F02AE246
:102B20002A95F1F700C00197A109B109E1CF809181
:102B300070020C948B071F920F920FB60F92112404
:102B40002F933F938F939F93AF93BF9380911602E0
:102B500090911702A0911802B091190230911502BC
:102B600023E0230F2D3758F50196A11DB11D2093A9
:102B700015028093160290931702A0931802B09347
:102B8000190280911A0290911B02A0911C02B0912F
:102B90001D020196A11DB11D80931A0290931B0284
:102BA000A0931C02B0931D02BF91AF919F918F9192
:102BB0003F912F910F900FBE0F901F90189526E810
:102BC000230F0296A11DB11DD2CF1F920F920FB6F7
:102BD0000F9211242F933F934F935F936F937F93A3
:102BE0008F939F93AF93BF93EF93FF93E091020175
:102BF000F09103010995FF91EF91BF91AF919F91E2
:102C00008F917F916F915F914F913F912F910F9095
:102C10000FBE0F901F9018951F920F920FB60F9234
:102C200011242F933F934F935F936F937F938F93D1
:102C30009F93AF93BF93EF93FF93E0910001F091C7
:102C400001010995FF91EF91BF91AF919F918F91F4
:102C50007F916F915F914F913F912F910F900FBE98
:102C60000F901F9018951F920F920FB60F9211247C
:102C70002F933F934F935F936F937F938F939F9384
:102C8000AF93BF93EF93FF9389E992E00E9475059C
:102C9000FF91EF91BF91AF919F918F917F916F9134
:102CA0005F914F913F912F910F900FBE0F901F900A
:102CB00018951F920F920FB60F9211242F938F9396
:102CC0009F93EF93FF93E091A902F091AA02808174
:102CD000E091AF02F091B00282FD1BC09081809123
:102CE000B2028F5F8F732091B302821741F0E0919F
:102CF000B202F0E0E756FD4F958F8093B202FF914C
:102D0000EF919F918F912F910F900FBE0F901F9079
:102D100018958081F4CF1F920F920FB60F92112455
:102D20002F933F934F935F936F937F938F939F93D3
:102D3000AF93BF93EF93FF938091B900887F803664
:102D400009F44AC0F0F5883209F4A7C018F58031BB
:102D500009F49BC0B8F4882309F4F9C0883009F459
:102D600094C0FF91EF91BF91AF919F918F917F910F
:102D70006F915F914F913F912F910F900FBE0F90E8
:102D80001F901895883109F488C0803251F78093DC
:102D90006D0214C0803409F49DC040F48033B9F34F
:102DA0008833F9F680936D0285ECB0C0803509F464
:102DB00085C0883509F496C0883499F60E94631559
:102DC000D0CF883909F48CC038F5883729F050F411
:102DD000883611F0803729F683E080936F021092D5
:102DE0000F0257C0883809F47BC0803919F0803849
:102DF00009F0B7CF80910F02803208F071C0E091E6
:102E00000F0281E08E0F80930F028091BB00F0E0F3
:102E1000E151FE4F80833DC0803B39F0E0F4803AC1
:102E200009F479C0883A09F09CCF84E080936F025E
:102E30001092EE011092ED01E0912002F09121023A
:102E400009958091ED0181110FC081E08093ED0122
:102E50001092CD0109C0803C09F4A6CF883C09F44A
:102E6000A3CF883B09F07DCFE091EE0181E08E0F8A
:102E70008093EE01F0E0E353FE4F80818093BB002E
:102E80009091EE018091ED0129C080914A028093DA
:102E9000BB0085EC8093BC0064CF90916C02809164
:102EA0006B02981758F5E0916C0281E08E0F8093C9
:102EB0006C02F0E0E55BFD4F8081E9CFE0916C02B0
:102EC00081E08E0F80936C028091BB00F0E0E55BA7
:102ED000FD4F808390916C0280916B029817C8F22D
:102EE00085E8D8CFE0916C0281E08E0F80936C0270
:102EF0008091BB00F0E0E55BFD4F808380916E0226
:102F000081115CCF81E08093490284EA8093BC0008
:102F100010926F0226CF85EC8093BC0010926F0256
:102F200080910F02803230F4E0910F02F0E0E15125
:102F3000FE4F108260910F0270E0E0911E02F0914E
:102F40001F028FEE91E0099510920F020ACF1092A6
:102F50006D0234CFCF93DF9310929C0210929B02AC
:102F600088EE93E0A0E0B0E080939D0290939E02F3
:102F7000A0939F02B093A0022EE031E030939A021A
:102F80002093990225EC30E03093A6022093A5020D
:102F900024EC30E03093A8022093A70220EC30E02C
:102FA0003093AA022093A90221EC30E03093AC02C6
:102FB0002093AB0222EC30E03093AE022093AD02BE
:102FC00026EC30E03093B0022093AF021092B202B0
:102FD0001092B3021092B4021092B502109239030B
:102FE0001092380380933A0390933B03A0933C03E1
:102FF000B0933D0380E291E09093370380933603D2
:10300000109245031092440382E391E090934303AE
:10301000809342038CE38093460387E080934703C9
:103020008FE3809348038FE78093490380E094E027
:1030300090934B0380934A0310924C0710924D07D4
:1030400010924E07C1E0C0934F0788E0809350076D
:103050001092520710925107109254071092530782
:10306000109255071092570782E0809358071092EC
:1030700063071092B7071092B6071092B807109224
:10308000B9071092BA071092BB071092BC071092B2
:10309000BD0710929E071092A00710929F071092F2
:1030A000A2071092A1071092A3071092A4071092F2
:1030B000A5071092A6071092A7071092A8071092D2
:1030C000A9071092AA071092AB071092AC071092B2
:1030D000AD071092AE074FEF5FEFBA018FEA97E0AE
:1030E0000E9404061092B50786EB97E0909386073E
:1030F000809385071092870710928807109289079E
:1031000010928A07C0938B0710928D0710928C073C
:1031100010928E0710928F071092900710929107CD
:1031200010929207109294071092930710929607AC
:10313000109295071092980710929707109299078E
:1031400010929A0710929B0710929C07C0939D07BC
:1031500062E083E00E943E0462E082E00E943E045E
:10316000E2E8F4E0E491F0E0EE0FFF1FEB58FB4FD4
:10317000A591B491B0936907A0936807E4E6F4E0E1
:10318000449140936C07E1E8F4E0E491F0E0EE0F45
:10319000FF1FEB58FB4FC591D491D0936B07C093A1
:1031A0006A07E3E6F4E0E491E0936D0710926F079D
:1031B0001092700710927107109272072BE33FE193
:1031C000C9010197F1F79C91842F892391E009F4BB
:1031D00090E08881E82309F0926028E637E0909338
:1031E0006E0730936707209366078FE899E0909306
:1031F00003018093020180916900837F8460809342
:103200006900E99A81E08093730730936507209302
:10321000640789E899E0909301018093000180910F
:1032200069008C7F816080936900E89A82E08093D6
:103230007307109274071092750710927607109218
:103240007707109278071092790710927A071092F8
:103250007B0710927D0710927C0710927E0785E80D
:1032600097E09093800780937F078EE997E0909393
:1032700082078093810786EB97E090938407809381
:103280008307DF91CF910895CF93DF93CDB7DEB75A
:10329000A2970FB6F894DEBF0FBECDBF789484B569
:1032A000826084BD84B5816084BD85B5826085BD42
:1032B00085B5816085BD80916E00816080936E00D0
:1032C00010928100809181008260809381008091C2
:1032D0008100816080938100809180008160809373
:1032E00080008091B10084608093B1008091B00033
:1032F00081608093B00080917A00846080937A002E
:1033000080917A00826080937A0080917A00816057
:1033100080937A0080917A00806880937A0010927E
:10332000C100E091A902F091AA0282E08083E091BD
:10333000A502F091A6021082E091A702F091A802E6
:103340008FEC80831092B102E091AD02F091AE0259
:1033500086E08083E091AB02F091AC0280818061D5
:103360008083E091AB02F091AC0280818860808321
:10337000E091AB02F091AC02808180688083E091A3
:10338000AB02F091AC0280818F7D808362E086E0A9
:103390000E943E0462E085E00E943E040E947407A1
:1033A0008091B6079091B707009711F00E94AB2269
:1033B00086E090E00E940F228C0188E6F80180836D
:1033C00086E393E092838183138280E290E0958389
:1033D00084831093B7070093B6070E94740781E0B7
:1033E000F8018383C8010E949C088111F3C063E93E
:1033F00073E089E992E00E94D30466E571E089E90F
:1034000092E00E941D110E94AC1062E084E00E94D4
:103410003E0480917307823008F0E7C0F89488E694
:1034200097E00E94470980916F0790917007A091E3
:103430007107B09172077894809374079093750721
:10344000A0937607B09377070E94C604609378072D
:103450007093790780937A0790937B0761E08BE004
:103460000E943E0461E08CE00E943E0460E08BE03C
:103470000E94100460E08CE00E94100464E170E09F
:1034800080E090E00E9494043E01FAE06F0E711C0F
:103490009E012D5E3F4F3F8B2E8BAE01405F5F4FF5
:1034A000598F488F8E010F5F1F4FA4EA2A2EA1E08B
:1034B0003A2E80917E07882309F44BC080917307D0
:1034C000823008F094C0F89488E697E00E9447099B
:1034D00060916F07709170078091710790917207EA
:1034E000789424E030E040E050E00E94CB20690175
:1034F0007A018091740790917507A0917607B09139
:103500007707C816D906EA06FB0619F188E89FEF87
:1035100058E8C5165FEFD506E506F50664F03C2DC4
:103520002D2D89E7C816D104E104F10414F038E721
:1035300020E0832F922F90937D0780937C070E9439
:10354000EB12C0927407D0927507E0927607F09262
:1035500077070E94C60420919E07222309F463C0C6
:10356000C090A307D090A407E090A507F090A6070D
:103570009B01AC012C193D094E095F0969017A01D3
:1035800030EAC3163FE0D306E104F10408F44BC06F
:103590006093A3077093A4078093A5079093A60751
:1035A0002091A1073091A20720FD23C0C90197FDFA
:1035B0000196959587958095909581700E947211DE
:1035C0008091A1079091A20701969093A207809302
:1035D000A10729C066EB77E0CE0101960E945B0E41
:1035E000CE0101960E94F4060ECFF8941CCFF894F9
:1035F0006FCF60E08BE00E94100460E08CE00E94DE
:1036000010048091A1079091A207019697FD019661
:103610009595879520919F073091A0078217930772
:103620007CF210929E0784E00E94E703892B09F048
:1036300040C00E94C604C0907807D0907907E090FF
:103640007A07F0907B076C197D098E099F096D320E
:1036500071408105910568F10E94C6046093780766
:103660007093790780937A0790937B0780917E0708
:10367000811171C010927D0710927C07F89410920E
:103680006F0710927007109271071092720778946A
:1036900010927407109275071092760710927707B0
:1036A00081E080937E0780917C0790917D070E9446
:1036B000EB1280918B07882371F10E94C604C090A1
:1036C0008707D0908807E0908907F0908A076C19E7
:1036D0007D098E099F0961367A4E81059105B8F002
:1036E00010928B078091460391E09093750280932E
:1036F0009702109276021092980280E80E94950933
:103700008EEA0E94950987E597E00E94A8098091BA
:103710008B07811195C085E00E94E70321E00097A7
:1037200009F020E02093BD07892B09F074C00E94A6
:10373000C6046093870770938807809389079093E6
:103740008A0780918B0781117BC081E080938B0772
:103750000E94AC1070C0D0907C07E0908307F0907E
:103760008407B701C3010E945B0EC3010E94F406E7
:103770008823F1F0AD2DDD0CBB0B2CE330E00E9473
:10378000EA204B015C01C3010E94B006AB01BC0101
:10379000480D591D6A1D7B1DC8010E940406C80101
:1037A0000E94F406882321F0B801C7010E94430F4C
:1037B00010927E0780917C0790917D07892BB9F04C
:1037C0000E940812E0908107F090820780917C07A8
:1037D00090917D07181619067CF060E08BE00E943E
:1037E000100460E08CE00E941004F7011082109237
:1037F0007D0710927C075DCFF7019283818314824D
:10380000138281E080830E94C604F701658376837A
:1038100087839087ECCF86E00E94E70321E0009742
:1038200009F020E02093BC07892B09F480CF809118
:103830007E0781117CCF80918B07882309F4CDC24C
:1038400080918C0790918D07009709F467C28230B0
:10385000910509F4C5C28330910579F0019709F00B
:1038600089C122E0422E512C48E150E05D8F4C8FFF
:1038700083E997E09B8F8A8F0AC0512C412C2CE35F
:1038800030E03D8F2C8F47E957E05B8F4A8F0E94D5
:10389000C604C0908E07D0908F07E0909007F090FC
:1038A00091076C197D098E099F09653F714081055B
:1038B000910580F08091920791E08927809392078B
:1038C0000E94C60460938E0770938F0780939007C1
:1038D00090939107C0909307509194075E8F8091C9
:1038E00095078F8F9091960798A3E0919707E9A38A
:1038F000F0919807FAA380918507909186070E941E
:10390000F30E4B015C0180918C0790918D07813003
:10391000910531F48091920781116EC2D12C0BC0B8
:103920008230910551F480919207F12C882309F49B
:1039300065C262E0D62EF12C0AC0039779F7809118
:103940009207D12CF12C72E0E72E811101C0E12CFD
:103950002E8D2F93CF923F922F921F9253E0C52E20
:10396000CF923F893F934E894F930E94422358A1A3
:103970005F938F8D8F933F922F921F92CF92998D4D
:103980009F93E88DEF930E944223FAA1FF9329A110
:103990002F933F922F921F92CF927F926F920E940D
:1039A00042230FB6F894DEBF0FBECDBFFF2011F04B
:1039B00080E28C8BDD2011F080E2898BEE2011F00B
:1039C00080E28B877F926F92598D5F93888D8F9362
:1039D0009F899F93EE89EF9322EC31E03F932F93E1
:1039E0001F9289E08F931F930F930E9442230E949E
:1039F0000D1132E0D32ED0924F0740E1E42EE09239
:103A0000500780E190E09093520780935107109205
:103A100054071092530710925507C8010E940312D1
:103A2000FF24F394F0924F0788E0809350078CE0D6
:103A300090E090935207809351078CE190E090932F
:103A400054078093530784E08093550789EA91E0F7
:103A50000E94031220E230E04AE050E060E270E0B1
:103A600088E090E00E94AD0220E230E048E750E0BC
:103A700060E270E080E590E00E94AD022FE330E06C
:103A800048E050E060E270E088E090E00E94AD0223
:103A90002FE330E048E750E060E270E088E790E034
:103AA0000E94AD02D0924F07E092500784E190E06F
:103AB000909352078093510789E290E090935407C6
:103AC00080935307F09255070FB6F894DEBF0FBEF0
:103AD000CDBF20E030E0A901C501B4010E9405225C
:103AE00087FD04C081E891E00E94031242E0C50115
:103AF000B4010E946C130E94201084E690E0909321
:103B000052078093510789E290E090935407809385
:103B1000530781E08093550780EC91E00E940312E7
:103B20002FE330E048E750E06FE370E088E090E09A
:103B30000E94AD020E94000A0E94C604C09099072C
:103B4000D0909A07E0909B07F0909C076C197D0934
:103B50008E099F09E0908507F0908607693B7B40BE
:103B600081059105D0F0B701C8010E945B0EC80124
:103B70000E94EC0F62E370E080E090E00E94940409
:103B800080E090E0892B09F494CC0E9461058823A1
:103B900009F48BCC0E94000085CC85E00E94E703ED
:103BA0009C0181E02115310509F080E0F701878350
:103BB00090911402232B09F0A2C0911114C080919E
:103BC0009D07882309F48FC010929D0781E08093A0
:103BD00014020E94C6046093990770939A07809319
:103BE0009B0790939C07E0908507F090860786E0FE
:103BF0000E94E70321E0009709F020E0F701268307
:103C0000892B71F410928D0710928C070E94C604C4
:103C10006093990770939A0780939B0790939C07F2
:103C20008BE00E94E703892B09F06FC0809110029E
:103C300090911102A0911202B0911302892B8A2B4C
:103C40008B2B51F40E94C6046093100270931102F2
:103C500080931202909313020E94C604C090100237
:103C6000D0901102E0901202F09013026C197D09BD
:103C70008E099F09693E73408105910508F47ACF4A
:103C800050928D0740928C07109292070E94C604B2
:103C900060938E0770938F0780939007909391079E
:103CA000109210021092110210921202109213023E
:103CB000109214020E94C6046093990770939A07A9
:103CC00080939B0790939C0781E080939D07809150
:103CD0008C0790918D07892B09F04CCF6091850757
:103CE0007091860741CFEA8DFB8D8081918101968D
:103CF0006C8D7D8D0E9495209183808367CF992361
:103D000009F471CF109214026ECF1092100210922B
:103D1000110210921202109213022CCF0E9448142A
:103D200085E00E94E70321E0009709F020E020935E
:103D3000BD07892B09F01ECF60918507709186071A
:103D4000C8010E945B0EC8010E94F406882389F115
:103D500021E030E030938D0720938C078C8190E038
:103D600090939407809393078D8190E090939607AA
:103D7000809395078E8190E09093980780939707A2
:103D80000E94C60460938E0770938F0780939007FC
:103D900090939107109292070E94C604609399072E
:103DA00070939A0780939B0790939C0781E0809380
:103DB0009D070E94C60460938707709388078093CD
:103DC000890790938A0780918B078111D3CE81E078
:103DD00080938B070E94AC10CDCE0E944814CACEAF
:103DE00093E0492E512CECE3F0E0FD8FEC8F25E9B8
:103DF00037E03B8F2A8F4BCD82E0F82ED12CA7CD18
:103E00000E94421F08F481E00895E89409C097FBDE
:103E10003EF490958095709561957F4F8F4F9F4FA1
:103E20009923A9F0F92F96E9BB279395F6958795E5
:103E300077956795B795F111F8CFFAF4BB0F11F4A8
:103E400060FF1BC06F5F7F4F8F4F9F4F16C088234F
:103E500011F096E911C0772321F09EE8872F762F85
:103E600005C0662371F096E8862F70E060E02AF0C6
:103E70009A95660F771F881FDAF7880F96958795B2
:103E800097F90895990F0008550FAA0BE0E8FEEF87
:103E900016161706E807F907C0F012161306E4070E
:103EA000F50798F0621B730B840B950B39F40A2607
:103EB00061F0232B242B252B21F408950A2609F4E5
:103EC000A140A6958FEF811D811D08950E94791F45
:103ED0000C94EA1F0E94DC1F38F00E94E31F20F0C0
:103EE000952311F00C94D31F0C94D91F11240C941A
:103EF0001E200E94FB1F70F3959FC1F3950F50E0A9
:103F0000551F629FF001729FBB27F00DB11D639F8B
:103F1000AA27F00DB11DAA1F649F6627B00DA11D31
:103F2000661F829F2227B00DA11D621F739FB00DD7
:103F3000A11D621F839FA00D611D221F749F332747
:103F4000A00D611D231F849F600D211D822F762FE0
:103F50006A2F11249F5750409AF0F1F088234AF0BD
:103F6000EE0FFF1FBB1F661F771F881F9150504029
:103F7000A9F79E3F510580F00C94D31F0C941E208E
:103F80005F3FE4F3983ED4F3869577956795B795B0
:103F9000F795E7959F5FC1F7FE2B880F911D9695CA
:103FA000879597F9089597F99F6780E870E060E03A
:103FB00008959FEF80EC089500240A9416161706C2
:103FC00018060906089500240A941216130614060A
:103FD00005060895092E0394000C11F4882352F06D
:103FE000BB0F40F4BF2B11F460FF04C06F5F7F4F25
:103FF0008F4F9F4F089557FD9058440F551F59F00C
:104000005F3F71F04795880F97FB991F61F09F3FC5
:1040100079F087950895121613061406551FF2CFEE
:104020004695F1DF08C0161617061806991FF1CF3E
:1040300086957105610508940895E894BB27662765
:104040007727CB0197F908950E946620A59F900DD0
:10405000B49F900DA49F800D911D112408952F925F
:104060003F924F925F926F927F928F929F92AF9208
:10407000BF92CF92DF92EF92FF920F931F93CF9355
:10408000DF93CDB7DEB7CA1BDB0B0FB6F894DEBFEC
:104090000FBECDBF09942A88398848885F846E8412
:1040A0007D848C849B84AA84B984C884DF80EE805C
:1040B000FD800C811B81AA81B981CE0FD11D0FB665
:1040C000F894DEBF0FBECDBFED010895A29FB001F1
:1040D000B39FC001A39F700D811D1124911DB29F3C
:1040E000700D811D1124911D0895991B79E004C064
:1040F000991F961708F0961B881F7A95C9F7809527
:104100000895AA1BBB1B51E107C0AA1FBB1FA6171E
:10411000B70710F0A61BB70B881F991F5A95A9F770
:1041200080959095BC01CD01089597FB072E16F45C
:10413000009407D077FD09D00E94812007FC05D0AC
:104140003EF4909581959F4F0895709561957F4FAE
:104150000895A1E21A2EAA1BBB1BFD010DC0AA1FC8
:10416000BB1FEE1FFF1FA217B307E407F50720F0E0
:10417000A21BB30BE40BF50B661F771F881F991F5B
:104180001A9469F760957095809590959B01AC01A4
:10419000BD01CF010895052E97FB1EF400940E94E7
:1041A000E22057FD07D00E94A92007FC03D04EF45F
:1041B0000C94E22050954095309521953F4F4F4FFC
:1041C0005F4F089590958095709561957F4F8F4FC3
:1041D0009F4F08950E946620B7FF0895821B930B9E
:1041E0000895EE0FFF1F0590F491E02D09945058AB
:1041F000BB27AA270E940F210C94EA1F0E94DC1FF4
:1042000038F00E94E31F20F039F49F3F19F426F4A0
:104210000C94D91F0EF4E095E7FB0C94D31FE92F03
:104220000E94FB1F58F3BA176207730784079507AC
:1042300020F079F4A6F50C941D200EF4E0950B2ED9
:10424000BA2FA02D0B01B90190010C01CA01A001E8
:104250001124FF27591B99F0593F50F4503E68F143
:104260001A16F040A22F232F342F4427585FF3CF84
:10427000469537952795A795F0405395C9F77EF455
:104280001F16BA0B620B730B840BBAF09150A1F09E
:10429000FF0FBB1F661F771F881FC2F70EC0BA0F24
:1042A000621F731F841F48F4879577956795B795AC
:1042B000F7959E3F08F0B0CF9395880F08F09927A7
:1042C000EE0F9795879508950E9478210C94EA1F28
:1042D0000E94E31F58F00E94DC1F40F029F45F3F6A
:1042E00029F00C94D31F51110C941E200C94D91F4B
:1042F0000E94FB1F68F39923B1F3552391F3951B9B
:10430000550BBB27AA2762177307840738F09F5FF6
:104310005F4F220F331F441FAA1FA9F335D00E2E63
:104320003AF0E0E832D091505040E695001CCAF7D0
:104330002BD0FE2F29D0660F771F881FBB1F261793
:1043400037074807AB07B0E809F0BB0B802DBF016A
:10435000FF2793585F4F3AF09E3F510578F00C9439
:10436000D31F0C941E205F3FE4F3983ED4F3869550
:1043700077956795B795F7959F5FC9F7880F911D5A
:104380009695879597F90895E1E0660F771F881F46
:10439000BB1F621773078407BA0720F0621B730BF9
:1043A000840BBA0BEE1F88F7E09508950E94032056
:1043B00088F09F5798F0B92F9927B751B0F0E1F0E6
:1043C000660F771F881F991F1AF0BA95C9F714C096
:1043D000B13091F00E941D20B1E008950C941D2091
:1043E000672F782F8827B85F39F0B93FCCF38695CF
:1043F00077956795B395D9F73EF49095809570952C
:1044000061957F4F8F4F9F4F08950E94421F08F480
:104410008FEF08950E94421F880B990B08950F9308
:104420001F93CF93DF938230910510F482E090E0E8
:10443000E091C007F091C10730E020E0B0E0A0E0DB
:10444000309799F42115310509F44AC0281B390B1E
:1044500024303105D8F58A819B816115710589F178
:10446000FB0193838283FE0111C04081518102814F
:10447000138148175907E0F04817590799F4109726
:1044800061F012960C93129713961C933296CF01FB
:10449000DF91CF911F910F9108950093C007109362
:1044A000C107F4CF2115310551F04217530738F0F9
:1044B000A901DB019A01BD01DF01F801C1CFEF01C4
:1044C000F9CF9093C1078093C007CDCFFE01E20FD3
:1044D000F31F819391932250310939832883D7CFD9
:1044E0002091BE073091BF07232B41F42091060194
:1044F000309107013093BF072093BE07209104013C
:10450000309105012115310541F42DB73EB7409199
:10451000080150910901241B350BE091BE07F09171
:10452000BF07E217F307A0F42E1B3F0B281739072C
:1045300078F0AC014E5F5F4F2417350748F04E0FFF
:104540005F1F5093BF074093BE07819391939FCF06
:10455000F0E0E0E09CCFCF93DF930097E9F0FC011F
:10456000329713821282A091C007B091C107ED016A
:1045700030E020E01097A1F420813181820F931F59
:104580002091BE073091BF072817390709F061C095
:10459000F093BF07E093BE07DF91CF910895EA0142
:1045A000CE17DF07E8F54A815B819E014115510571
:1045B000B1F7E901FB83EA8349915991C40FD51FF3
:1045C000EC17FD0761F4808191810296840F951F9D
:1045D000E90199838883828193819B838A83F0E0B8
:1045E000E0E012968D919C9113970097B9F52D916B
:1045F0003C911197CD010296820F931F2091BE0727
:104600003091BF072817390739F6309751F51092C6
:10461000C1071092C007B093BF07A093BE07BCCFDD
:10462000D383C28340815181840F951FC817D90756
:1046300061F44E5F5F4F88819981480F591F518304
:1046400040838A819B81938382832115310509F000
:10465000B0CFF093C107E093C0079ECFFD01DC010E
:10466000C0CF13821282D7CFDC0101C06D934150BD
:104670005040E0F70895FB01DC0101900D9200200D
:10468000E1F70895AEE0B0E0E8E4F3E20C943D20F9
:104690000D891E898F89988D26E02C831A830983C2
:1046A00097FF02C080E090E801979E838D83AE0162
:1046B000455E5F4F698D7A8DCE0101960E9472230F
:1046C0004D815E8157FD0AC02F81388542175307FF
:1046D0000CF49A01020F131FF80110822E96E4E0E9
:1046E0000C945920ABE0B0E0E8E7F3E20C942F2003
:1046F0007C013B018A01FC0117821682838181FFC4
:10470000C8C1CE0101965C01F7019381F30193FDCD
:10471000859193FF81913F01882309F453C185322C
:1047200039F493FD859193FF81913F01853229F4FE
:10473000B70190E00E946225E7CF912C212C312C0B
:10474000FFE1F31538F08B3211F190F4803209F16A
:10475000833229F137FC3CC020ED280F2A3050F578
:1047600036FE20C08AE0989E200D1124922E06C0AD
:104770008D3291F0803371F7689430F8F30193FD36
:10478000859193FF81913F018111DACF21C0689417
:1047900031F8689432F8F2CF689433F8EFCF689428
:1047A00034F8ECCFEAE02E9E200D1124222E6894DE
:1047B00035F8E4CF8E3229F436FC04C1689436F81B
:1047C000DDCF8C3619F4689437F8D8CF8836B1F23B
:1047D000982F9F7D95549330E0F08336A1F1833775
:1047E000C1F1833509F063C02801F2E04F0E511C7E
:1047F000F801C080D180692D70E036FC02C06FEFF7
:104800007FEFC6010E944C254C01689437F8820165
:104810000AC00C5F1F4FFFE3F98388248394912C17
:104820006501E89437F833FE2DC0522C81149104B1
:1048300071F5552009F468CFB70180E290E00E943D
:1048400062255A94F6CFF801808189830E5F1F4F4D
:10485000E4CF2801F2E04F0E511CF801C080D18056
:10486000692D70E036FC02C06FEF7FEFC6010E9439
:1048700057254C018201D5CFB70180E290E00E941C
:1048800062252A942814190409F0B0F7CECFF60156
:1048900037FC859137FE81916F01B70190E00E944E
:1048A000622551105A94F1E08F1A9108BFCF8436D7
:1048B00019F0893609F077C0F80137FE6BC06081C6
:1048C0007181828193810C5F1F4FF32DFF763F2E04
:1048D00097FF09C090958095709561957F4F8F4F98
:1048E0009F4F689437F82AE030E0A5010E94922596
:1048F000C82ECA188C2C432C36FE0CC0E89440F805
:10490000C91440F434FE05C032FC03C0F32DFE7E12
:104910004F2E892C44FE95C0FE01EC0DF11D8081C7
:10492000803309F087C0242D297E422E842D887083
:10493000582E43FC95C040FE8FC09C2C821418F466
:104940002C0C922C981844FE91C0B70180E390E0A3
:104950000E94622542FE09C088E790E041FE02C045
:1049600088E590E0B7010E946225C91408F48AC066
:10497000CA94D12C9FEFC91AD90ACA0CDB1CF601C4
:1049800082916F01B70190E00E946225AC14BD04D2
:10499000B1F74FCF60817181072E000C880B990B06
:1049A0000E5F1F4F92CFD32CE894D4F82AE030E06A
:1049B000853739F1232D297FD22E8F3601F148F426
:1049C0008835A9F0F701868197812B96E2E10C9456
:1049D0004B20803749F08837A9F7D4FE02C068948D
:1049E000D2F820E130E00DC06894D4F8F6CF34FE60
:1049F00003C0822F8660D82E20E132E002C028E07A
:104A000030E0F801D7FE0FC060817181828193810F
:104A10000C5F1F4FA5010E949225C82ECA183D2C7D
:104A2000E89437F867CF6081718190E080E00E5F95
:104A30001F4FF0CF42FC02C0839478CF83948394BD
:104A400075CF842D867809F471CFF6CFB70180E257
:104A500090E00E94622583948214C0F3512C73CF9E
:104A6000522C5818821408F46ECFF8CF842D867813
:104A700009F47BCF8BE241FE80E247FC8DE2B70177
:104A800090E071CFB70180E390E00E9462259A9494
:104A90006CCF8FEF9FEF99CFFC0105906150704074
:104AA0000110D8F7809590958E0F9F1F0895FC01F7
:104AB0006150704001900110D8F7809590958E0F4D
:104AC0009F1F08950F931F93CF93DF93182F092FE4
:104AD000EB018B8181FD09C01FEF0FEF812F902F1C
:104AE000DF91CF911F910F91089582FF14C02E8105
:104AF0003F818C819D81281739073CF4E881F98139
:104B0000CF0101969983888310838E819F810196BE
:104B10009F838E83E3CFE885F985812F0995892BC3
:104B2000A1F3DACFFA01AA27283051F1203181F11F
:104B3000E8946F936E7F6E5F7F4F8F4F9F4FAF4FA5
:104B4000B1E03ED0B4E03CD0670F781F891F9A1FB8
:104B5000A11D680F791F8A1F911DA11D6A0F711D6C
:104B6000811D911DA11D20D009F468943F912AE078
:104B7000269F11243019305D3193DEF6CF01089560
:104B8000462F4770405D4193B3E00FD0C9F7F6CF91
:104B9000462F4F70405D4A3318F0495D31FD405259
:104BA000419302D0A9F7EACFB4E0A69597958795EF
:104BB00077956795BA95C9F70097610571050895CE
:104BC0009B01AC010A2E069457954795379527957A
:104BD000BA95C9F7620F731F841F951FA01D089512
:044BE000F894FFCF77
:104BE400D204D2040000C207800000000000970530
:104BF400F7042405E40555053305470500000000C6
:104C04001809EB08030DC108E408D108C208000024
:104C140000009A0AF704030D020DF09F94B42028B3
:104C2400D09DD0B5D187D0B5D182D0BDD18BD0B9EC
:104C34007C4F444429000D0A00F09F9FA22028D0F5
:104C4400A7D0B5D182D0BDD18BD0B97C4556454EC5
:104C54002900D09ED0B1D180D0BED0B1D0BAD0B0CE
:104C6400002B002573256400D185D0B22E006E611F
:104C74006E00696E66006F766600253032643A25F0
:104C84003032643A2530326400D0A2D0B5D0BCD0E2
:104C9400BFD0B5D180D0B0D182D183D180D0B00083
:0C4CA400430025733A25733A2573000085
:00000001FF
